{
  "_format": "hh-sol-artifact-1",
  "contractName": "BasicDutchAuction",
  "sourceName": "contracts/BasicDutchAuction.sol",
  "abi": [
    {
      "inputs": [
        {
          "internalType": "uint256",
          "name": "_reservePrice",
          "type": "uint256"
        },
        {
          "internalType": "uint256",
          "name": "_numBlocksAuctionOpen",
          "type": "uint256"
        },
        {
          "internalType": "uint256",
          "name": "_offerPriceDecrement",
          "type": "uint256"
        }
      ],
      "stateMutability": "nonpayable",
      "type": "constructor"
    },
    {
      "inputs": [],
      "name": "auctionEnd",
      "outputs": [
        {
          "internalType": "bool",
          "name": "",
          "type": "bool"
        }
      ],
      "stateMutability": "view",
      "type": "function"
    },
    {
      "inputs": [],
      "name": "bid",
      "outputs": [
        {
          "internalType": "address",
          "name": "",
          "type": "address"
        }
      ],
      "stateMutability": "payable",
      "type": "function"
    },
    {
      "inputs": [
        {
          "internalType": "uint256",
          "name": "finalBid",
          "type": "uint256"
        }
      ],
      "name": "finalize",
      "outputs": [],
      "stateMutability": "nonpayable",
      "type": "function"
    },
    {
      "inputs": [],
      "name": "initialPrice",
      "outputs": [
        {
          "internalType": "uint256",
          "name": "",
          "type": "uint256"
        }
      ],
      "stateMutability": "view",
      "type": "function"
    },
    {
      "inputs": [],
      "name": "numBlocksAuctionOpen",
      "outputs": [
        {
          "internalType": "uint256",
          "name": "",
          "type": "uint256"
        }
      ],
      "stateMutability": "view",
      "type": "function"
    },
    {
      "inputs": [],
      "name": "offerPriceDecrement",
      "outputs": [
        {
          "internalType": "uint256",
          "name": "",
          "type": "uint256"
        }
      ],
      "stateMutability": "view",
      "type": "function"
    },
    {
      "inputs": [],
      "name": "receiver",
      "outputs": [
        {
          "internalType": "address",
          "name": "",
          "type": "address"
        }
      ],
      "stateMutability": "view",
      "type": "function"
    },
    {
      "inputs": [
        {
          "internalType": "uint256",
          "name": "refundAmount",
          "type": "uint256"
        }
      ],
      "name": "refund",
      "outputs": [],
      "stateMutability": "nonpayable",
      "type": "function"
    },
    {
      "inputs": [],
      "name": "reservePrice",
      "outputs": [
        {
          "internalType": "uint256",
          "name": "",
          "type": "uint256"
        }
      ],
      "stateMutability": "view",
      "type": "function"
    }
  ],
  "bytecode": "0x60806040523480156200001157600080fd5b50604051620009d6380380620009d6833981810160405281019062000037919062000111565b60008060006101000a81548160ff02191690831515021790555082600181905550816002819055508060038190555080826200007491906200019c565b83620000819190620001e7565b60048190555033600560006101000a81548173ffffffffffffffffffffffffffffffffffffffff021916908373ffffffffffffffffffffffffffffffffffffffff16021790555050505062000222565b600080fd5b6000819050919050565b620000eb81620000d6565b8114620000f757600080fd5b50565b6000815190506200010b81620000e0565b92915050565b6000806000606084860312156200012d576200012c620000d1565b5b60006200013d86828701620000fa565b93505060206200015086828701620000fa565b92505060406200016386828701620000fa565b9150509250925092565b7f4e487b7100000000000000000000000000000000000000000000000000000000600052601160045260246000fd5b6000620001a982620000d6565b9150620001b683620000d6565b9250828202620001c681620000d6565b91508282048414831517620001e057620001df6200016d565b5b5092915050565b6000620001f482620000d6565b91506200020183620000d6565b92508282019050808211156200021c576200021b6200016d565b5b92915050565b6107a480620002326000396000f3fe6080604052600436106100865760003560e01c80632a24f46c116100595780632a24f46c146101265780633103ea6214610151578063d3642a881461017c578063db2e1eed146101a7578063f7260d3e146101d257610086565b806305261aea1461008b5780631998aeef146100b45780631d0806ae146100d2578063278ecde1146100fd575b600080fd5b34801561009757600080fd5b506100b260048036038101906100ad9190610465565b6101fd565b005b6100bc610283565b6040516100c991906104d3565b60405180910390f35b3480156100de57600080fd5b506100e7610391565b6040516100f491906104fd565b60405180910390f35b34801561010957600080fd5b50610124600480360381019061011f9190610465565b610397565b005b34801561013257600080fd5b5061013b6103e1565b6040516101489190610533565b60405180910390f35b34801561015d57600080fd5b506101666103f2565b60405161017391906104fd565b60405180910390f35b34801561018857600080fd5b506101916103f8565b60405161019e91906104fd565b60405180910390f35b3480156101b357600080fd5b506101bc6103fe565b6040516101c991906104fd565b60405180910390f35b3480156101de57600080fd5b506101e7610404565b6040516101f491906104d3565b60405180910390f35b60016000806101000a81548160ff021916908315150217905550600560009054906101000a900473ffffffffffffffffffffffffffffffffffffffff1673ffffffffffffffffffffffffffffffffffffffff166108fc829081150290604051600060405180830381858888f1935050505015801561027f573d6000803e3d6000fd5b5050565b60008060009054906101000a900460ff16156102d4576040517f08c379a00000000000000000000000000000000000000000000000000000000081526004016102cb906105ab565b60405180910390fd5b6002544311610318576040517f08c379a000000000000000000000000000000000000000000000000000000000815260040161030f90610617565b60405180910390fd5b600254436103269190610666565b600354610333919061069a565b6004546103409190610666565b3411610381576040517f08c379a00000000000000000000000000000000000000000000000000000000081526004016103789061074e565b60405180910390fd5b61038a346101fd565b6000905090565b60045481565b3373ffffffffffffffffffffffffffffffffffffffff166108fc829081150290604051600060405180830381858888f193505050501580156103dd573d6000803e3d6000fd5b5050565b60008054906101000a900460ff1681565b60025481565b60035481565b60015481565b600560009054906101000a900473ffffffffffffffffffffffffffffffffffffffff1681565b600080fd5b6000819050919050565b6104428161042f565b811461044d57600080fd5b50565b60008135905061045f81610439565b92915050565b60006020828403121561047b5761047a61042a565b5b600061048984828501610450565b91505092915050565b600073ffffffffffffffffffffffffffffffffffffffff82169050919050565b60006104bd82610492565b9050919050565b6104cd816104b2565b82525050565b60006020820190506104e860008301846104c4565b92915050565b6104f78161042f565b82525050565b600060208201905061051260008301846104ee565b92915050565b60008115159050919050565b61052d81610518565b82525050565b60006020820190506105486000830184610524565b92915050565b600082825260208201905092915050565b7f5468652061756374696f6e20616c726561647920656e6465642e000000000000600082015250565b6000610595601a8361054e565b91506105a08261055f565b602082019050919050565b600060208201905081810360008301526105c481610588565b9050919050565b7f5468652061756374696f6e206861736e27742073746172746564207965740000600082015250565b6000610601601e8361054e565b915061060c826105cb565b602082019050919050565b60006020820190508181036000830152610630816105f4565b9050919050565b7f4e487b7100000000000000000000000000000000000000000000000000000000600052601160045260246000fd5b60006106718261042f565b915061067c8361042f565b925082820390508181111561069457610693610637565b5b92915050565b60006106a58261042f565b91506106b08361042f565b92508282026106be8161042f565b915082820484148315176106d5576106d4610637565b5b5092915050565b7f596f757220626964206973206c6f776572207468616e20746865206d696e696d60008201527f756d206269640000000000000000000000000000000000000000000000000000602082015250565b600061073860268361054e565b9150610743826106dc565b604082019050919050565b600060208201905081810360008301526107678161072b565b905091905056fea2646970667358221220126219bd58b5c4dbd707dc72da0b93499b0037c4a8a242aac27493f20f4402fc64736f6c63430008110033",
  "linkReferences": {},
  "deployedLinkReferences": {}
}